:020000040800F2
:10000000A8090020ED010008294F0008C53E00089E
:100010002D44000875080008615A0008000000001F
:10002000000000000000000000000000314F000848
:10003000A9080008000000002D4F0008354F0008F7
:10004000070200080702000807020008070200086C
:10005000070200080702000807020008070200085C
:100060000702000807020008AD0800087908000828
:1000700085080008910800089D080008070200088C
:10008000070200080702000807020008070200082C
:10009000070200080702000807020008070200081C
:1000A000070200080702000807020008070200080C
:1000B000070200084D4F0008594F000807020008CA
:1000C00007020008070200080702000807020008EC
:1000D00007020008195800086558000807020008C0
:1000E00007020008070200080702000807020008CC
:1000F00007020008070200080702000807020008BC
:1001000000000000070200080000000007020008CD
:100110000702000807020008714F000807020008E4
:10012000070200080702000807020008070200088B
:10013000070200080000000000000000070200089D
:10014000070200080702000800000000000000008D
:10015000000000000000000000000000000000009F
:10016000000000000000000000000000070200087E
:10017000070200080702000807020008070200083B
:10018000070200080702000807020008000000003C
:10019000000000000000000007020008070200083D
:1001A000000000000000000007020008070200082D
:1001B00007020008070200080702000807020008FB
:1001C00007020008070200080702000807020008EB
:1001D0000702000807020008DFF80CD000F08CFAD4
:1001E00000480047855A0008A809002006488047B3
:1001F00006480047FEE7FEE7FEE7FEE7FEE7FEE70C
:10020000FEE7FEE7FEE7FEE7394F0008D9010008E8
:100210002DE9F05F0546002092469B46884606463B
:10022000814640241BE0284641464746224600F0CE
:1002300071F853465A46C01A914110D311461846D8
:10024000224600F058F82D1A67EB01084F46224667
:100250000120002100F04FF817EB00094E41201E4D
:10026000A4F10104DFDC484631462A464346BDE896
:10027000F09FD2B201E000F8012B491EFBD270477B
:100280000022F6E710B513460A4604461946FFF762
:10029000F0FF204610BD421C10F8011B0029FBD1C5
:1002A000801A704700F0004230F000400AD0C10DC3
:1002B00001F56071C0F3160042EA0151C20840071F
:1002C0001143704700200146704730B50B46014688
:1002D00000202022012409E021FA02F59D4205D3E5
:1002E00003FA02F5491B04FA02F52844151EA2F18F
:1002F0000102F1DC30BD202A04DB203A00FA02F1D1
:10030000002070479140C2F1200320FA03F3194303
:1003100090407047202A04DB203A21FA02F00021A5
:10032000704721FA02F3D040C2F120029140084305
:1003300019467047F0B400F0004221F0004120F06F
:100340000040CE0DC30DC1F3160141F40001C0F30E
:1003500016004C42154640F40000761E09E010EBF2
:10036000440002D582F0004240428842F7D8400063
:100370005B1EB342F9DA18B1F0BC002100F0EFB90E
:100380002846F0BC70472DE9FE4F804681EA030005
:10039000C00F0C46009021F0004123F00045B8EB5F
:1003A0000200A94105D24046214690461C460B4614
:1003B000024623F00040104347D0270DC7F30A0040
:1003C000C3F30A510290401A019040286BDAC3F33C
:1003D000130040F4801B0098924620B10023D2EB1A
:1003E000030A63EB0B0B01985946C0F140025046DB
:1003F000FFF781FF06460D4650465946019A00F028
:1004000093F910EB08006141002487EA115284EA55
:10041000E7731A4340D0009A62B3019A012A4FEA67
:10042000075215DC001B61EB02014FF0004202EAAB
:100430000752CDE90042001C41F5801132462B469F
:1004400000F0CAF903B0BDE8F08F40462146F9E755
:10045000001B61EB0201001C41F5801300185B4199
:100460002018A2F5001747EB030140EAD570B61932
:100470006D4111E06D084FEA360645EAC0754FEA56
:100480000752001B61EB0201001C41F58011490875
:100490004FEA30000019514132462B4603B0BDE807
:1004A000F04F00F08AB90098012240000023D0EB01
:1004B000020263EBE073009821464FEAE074B8EB68
:1004C000000061EB0401E9E783F000435BE781F0A2
:1004D000004158E72DE9FE4F81EA030404F000448F
:1004E00021F0004100944FF0000B23F0004350EA4C
:1004F00001045ED052EA03045BD0C3F30A54C1F393
:100500000A552C44A4F2F3340194A0FB0254C1F325
:10051000130141F48011C3F3130343F4801301FB6F
:10052000024400FB034E840A970A44EA815447EAD6
:100530008357A4FB076802958D0A05FB07854FEAE0
:10054000932C04FB0C542705029D4FEA065847EAFA
:100550001637B5EB08056EEB070C870E920E47EACF
:10056000811742EA8312A7FB0201B6EB0B0164EB91
:1005700000042B0D43EA0C335E1844EB1C50DA46A2
:100580005146E7FB0201C5F313044FEA0B3343EA7C
:1005900014534FEA0432019C43EA0603A4F10C040D
:1005A0000294009CCDE900B400F016F903B0BDE858
:1005B000F08F00200146F9E72DE9F04D81EA0304B0
:1005C00004F0004B21F0004514464FF0000A23F0E0
:1005D000004150EA050220D054EA01021DD0C5F3C3
:1005E0000A570246C5F31303C1F31300C1F30A56B9
:1005F00040F4801543F48013A7EB0608101BD64681
:1006000008F2FD3873EB050002D308F1010801E0A0
:1006100092185B41B8F1000F03DA00200146BDE8F3
:10062000F08D00204FF48011064684460EE0171B23
:1006300073EB050705D3121B63EB050306434CEA76
:10064000010C49084FEA300092185B4150EA01075B
:10065000EDD152EA030012D082EA040083EA0501D8
:10066000084305D0101BAB4106D20122002306E04F
:1006700000224FF0004302E06FF0010253101AEB2A
:1006800006004CEB085110EB0A0041EB0B01BDE8F2
:10069000F04D00F092B8C1F30A52C1F3130140F2D9
:1006A000FF3341F480119A4202DA0020014670477C
:1006B00040F233439A42A2F2334202DC5242FFF745
:1006C00029BEFFF718BE000030B5041E71F100040A
:1006D00004DB4FF00044404264EB0101141E73F14F
:1006E000000405DB1C464FF00043524263EB040359
:1006F000994208BF904230BD1CB509480090094896
:1007000001900546009C06E0E06840F0010394E893
:10071000070098471034AC42F6D3FFF761FD0000A4
:10072000706A0008906A0008202A06DBCB17203A7E
:1007300041FA02F043EAE07306E041FA02F3D040E6
:10074000C2F1200291400843194670470029A8BF12
:100750007047401C490008BF20F00100704710B4EA
:10076000B0FA80FC00FA0CF050EA010404BF10BC9F
:10077000704749B1CCF1200421FA04F411FA0CF1CC
:1007800018BF012121430843A3EB0C01CB1D4FEA05
:1007900000614FEA102042BF002010BC704700EB00
:1007A000C35010440029A4BF10BC7047401C49002E
:1007B00008BF20F0010010BC704710B5141E73F183
:1007C000000408DA401C41F1000192185B411A4311
:1007D00001D120F0010010BD2DE9F04D92469B465D
:1007E00011B1B1FA81F202E0B0FA80F22032904603
:1007F000FFF781FD04460F4640EA0A0041EA0B017B
:1008000053465A46084313D0114653EA010019D003
:10081000C8F140025046FFF77DFD05460E465046A2
:1008200059464246FFF767FD084305D0012004E022
:1008300020463946BDE8F08D0020054346EAE076C3
:100840002C4337430A986305E40AA0EB0800002212
:10085000FD0A44EA47540A3002D500200146E9E780
:10086000010510196941DDE9084500196941BDE834
:10087000F04DA2E7FEE7000040F2C400C2F2000023
:1008800000F0D8BB40F22410C2F2000000F0D2BB4E
:1008900040F28410C2F2000000F0CCBB40F2E41041
:1008A000C2F2000000F0C6BB70470000102000F04C
:1008B00029BD0000EFF3108072B600BFFEE7000014
:1008C000F0B581B00022009290F85820012A01D1A1
:1008D0000221ABE10123076880F85830BB685B0751
:1008E00034D4D1E900351F26C5F3012407EB840475
:1008F000226B05F01F05AE40C3F38463B243AB40E7
:100900001A432263BA68BB6802F0040203F00803CA
:10091000D21840F0AD800A6807F114030426C2F330
:100920004064D1F808E006EAD25C53F82440C2F3F0
:1009300004550722AA40BEF1004F24EA02040BD15D
:1009400043F80C401A6842F000430DE0C16D41F0DD
:100950002001C165012166E10EFA05F2224343F848
:100960000C201A6822F000437B61D1E90435FC6851
:10097000042B50D13A6E3A6E0B68C2F3846293FA3C
:10098000A3F6B6FA86F65D0308BFC3F384664FF696
:10099000FF73B242C0F2070303D13A6E22F0004265
:1009A0003A667A6E7A6E0E68C2F3846296FAA6F59B
:1009B000B5FA85F51E4208BFC6F38465AA4203D185
:1009C0007A6E22F000427A66BA6EBA6E0E68C2F390
:1009D000846296FAA6F5B5FA85F51E4208BFC6F3FD
:1009E0008465AA4203D1BA6E22F00042BA66FA6E5A
:1009F000FA6E0E68C2F3846296FAA6F5B5FA85F52A
:100A00001E4208BFC6F38465AA4231D1FA6E22F0B5
:100A10000042FA662CE0062202EA940205FA02FC81
:100A20000E6807F1600555F823404FF20002C0F24E
:100A3000FF3206F0F846224046EA0C06324342F006
:100A4000004245F823200A698B6955F8226026F098
:100A50008076334345F822300A690B7F55F82260CF
:100A6000012B26F0007608BF06F1007645F82260DB
:100A7000BA68D20743D10D68CA68D7F8B0602B4670
:100A80006FF3DF4326EA030C4FF6FF7602F01804FB
:100A9000C0F20706E64000242E40C4F27F0446EA76
:100AA0000C06A242C7F8B06029D195FAA5F2B2FAB5
:100AB00082F2002B08BFAA0E013202F01E0302F0E0
:100AC0001F0201260025964002EB4202CFF6206568
:100AD00005EB0255354345F000750A2B38BF46EA51
:100AE0000255C5F3406307EB83038A685E69C5F36B
:100AF00004550724AC40A643AA4032435A61096812
:100B00000022C8F20802114200F08C8040F2083C3A
:100B1000C5F2000C0CF58063ACF502741A46A742CE
:100B200004BF40F20832C5F20002B7F1A04F04BF83
:100B300040F20832C5F2000215680022CCF22132E0
:100B4000914205F0E07E04D01022C9F2C002914229
:100B50002DD12A022BD4B7F1A04F63D1DCF80010BD
:100B600042F6635221F0E07141EA0E0141F40001C6
:100B7000CCF8001040F20801C2F200010968C0F28E
:100B80003E528909A1FB0212910901EB41010C229D
:100B900002EB810100910099002943D000990139AD
:100BA0000091009900294FF00001F7D13BE00022AD
:100BB000CCF25272914211D10022B2EB1E6F0DD1D4
:100BC000B7F1A04F2ED1DCF8001021F0E07141EA1E
:100BD0000E0141F08071CCF8001023E00022CCF629
:100BE000843291424FF0000108BF15F480021AD1FF
:100BF000B7F1A04F0AD040F20011C5F200018F42B8
:100C000010D0391BB1FA81F1490900E00121002916
:100C100018BF6346196821F0E07141EA0E0141F402
:100C2000800119600021002280F85820084601B098
:100C3000F0BD000070B582B000210028019142D0C3
:100C4000C16D39B9044600F001F920460021216642
:100C500084F858100268916889004FF6C071C5F693
:100C6000FF7102D593680B4093609368DB001DD43D
:100C7000936801F18051194041F08051916040F238
:100C80000801C2F20001096842F663538909C0F203
:100C90003E53A1FB03139909022303EB410100BF5B
:100CA0000191019911B101990139F9E79168C900E0
:100CB0000BD4C16D012641F01001C165016E41F0F8
:100CC0000101016602E00126B7E000269368C46DC9
:100CD00003F0040304F010041B19C36D77D123F44F
:100CE00081730233C3659368DB072AD140F2001495
:100CF00042F48073C5F2000440F2080CA342C5F22E
:100D0000000C40F09D80DCF80040DCF800311C4312
:100D1000E30716D10CF1F8034FF4E064D0F804E0D7
:100D20009A4208BF4FF44074B2F1A04F08BF4FF48D
:100D300040745CF8043023F47C1343EA0E034CF84F
:100D40000430437FC46BD0E9021544EA43332B439C
:100D500090F824501943012D41EA054306D1816AD8
:100D60000025CFF6FE7505EB41410B43C46A24B163
:100D7000016B04F4787529430B43D16844F20705ED
:100D8000CFF6F07529401943D1601169436B21F00A
:100D9000406119431161916809073FD490F83810F8
:100DA000037F490041EA8331D36844F20205AB4333
:100DB0001943D160036914696BB144F48031116146
:100DC000D2F8C01043F6FF75A9430B430CE043F083
:100DD0001002012630E024F480311161D2F8C010F5
:100DE00043F6FF7321EA0303C2F8C03090F84010C5
:100DF000136901290FD140F2FD7123EA010CD0E9FA
:100E00001135D0E9134143EA0C032B432343194323
:100E100041F0010301E023F0010313614169136B09
:100E2000012923F00F0302D1016A01390B43136337
:100E3000C26D012161F30102C265304602B070BD8E
:100E4000DCF80044E3073FF465AF7AE710B59AB0E9
:100E5000044600201990CDE91700CDE9150001A83E
:100E60005021FFF70DFA206840F20011C5F2000191
:100E7000884201D01AB010BD4FF4004001904FF0ED
:100E80000050119001A800F05FFD002818BFFFF787
:100E900011FD41F24C00C4F20200016841F400511E
:100EA0000160016801F4005100910099016841F06E
:100EB00001010160006815A900F001000090009890
:100EC0004320159003201690002017904FF090407B
:100ED00000F024FA1AB010BD002804BF01207047AA
:100EE00090F8211049B910B5002180F8201004466F
:100EF00000F010F82046BDE81040002101224162B8
:100F0000C0E90111C0E90311416180F821200846C0
:100F10007047000041F24801C4F202010068A1F5E7
:100F20008962904218BF704781B0086840F008009D
:100F30000860086800F008000090009801B0704751
:100F4000014690F82500022827D180B50868D1E92C
:100F500010CE8A6C036823F00E030360136823F439
:100F600080731360026822F0010202600EF01F001D
:100F7000012202FA00F0CCF80400D1E913205060FD
:100F8000486D30B1026822F480720260D1E9160225
:100F900042600020BDE8804002E00420C8630120D8
:100FA000012281F82520002281F8242070470000CA
:100FB00090F82510022930D180B50168D0E910CE13
:100FC000826C0B6823F00E030B600B6823F00103A7
:100FD0000B60116821F4807111600EF01F02012175
:100FE00001FA02F2CCF80420D0E913325A60426DC3
:100FF00032B1136823F480731360D0E91623536071
:1010000080F82510826B002180F824100AB19047E7
:101010000021BDE88040084670470421C1630121DA
:10102000002280F8251080F8242008467047000030
:10103000C06B7047B0B5D0E910C30268DCF800108F
:1010400003F01F030424D2F800E09C400C4218BFB8
:101050001EF004051BD102249C400C4218BF1EF058
:10106000020520D1D94009071CD51EF0080108BF90
:10107000B0BD116821F00E011160012101FA03F2E7
:10108000CCF80420C16380F82510416B18E011688A
:10109000890603D4116821F004011160CCF80440E2
:1010A000016B91B9B0BD1168890606D4116821F0B1
:1010B0000A011160012180F82510CCF80440C16AB2
:1010C0000022002980F82420ECD0BDE8B040084779
:1010D00000284FF0010C00F08A802DE9F04F00212C
:1010E000C4F2020103684FF6F83201F5816ECBF6C7
:1010F000FD72734538BF02F580624CF6CD441A4448
:10110000CCF6CC44A2FB042903F0FC02A2F10802B5
:10111000A2FB042800F1080B01F580646FF00306C0
:101120009BE8040C3CBF0024C4F2020401F50265F4
:1011300006EA9906734538BF01F50065C0E9104617
:10114000022480F825401C6847F6F07724EA070758
:10115000D0E9054147EA0A0747EA0B07D0E907E962
:101160003C43214341EA0E0141EA09011143196060
:101170000021C4F2020101F50861C164C8F3041141
:1011800073190CFA01F58364B2F5804F056504BF4D
:1011900000214160476840F68401FAB21A607B1E64
:1011A000C4F20201032B0D6012D8013A01EB820355
:1011B000002702F01F02012643F87C7F01F1BC07E3
:1011C00006FA02F2C0E91537C265C1F8C02003E093
:1011D0000021C0E91511C1654FF0000C0121C0F8D4
:1011E0003CC080F8251080F824C0BDE8F04F604670
:1011F0007047000090F824C0BCF1010F43D04FF0BD
:10120000010C80F824C090F825C0BCF1010F37D143
:101210002DE9F0414FF0020C80F825C04FF0000C92
:10122000C0F83CC0D0F800C000F14C0E9EE8304041
:10123000DCF80060BEF1000F26F00106CCF800607B
:1012400065601CBFD0E916456560D0E9105684681A
:1012500006F01F060127D0F8308007FA06F66E6008
:10126000CCF80430102C0B4604BF13460A46B8F1E4
:10127000000FCCF80830CCF80C2006D00E210BE083
:10128000002180F8241002207047DCF8001021F0C3
:101290000401CCF800100A21DCF800201143CCF83E
:1012A0000010806C0168C90303D5016841F48071A6
:1012B0000160BEF1000F05D0DEF8000040F4807040
:1012C000CEF80000DCF8000040F00100CCF800008F
:1012D0000020BDE8F0810000B0B5044600F0F4F84D
:1012E000054640F21000C2F200000068611C18BF01
:1012F000044400BF00F0E8F8401BA042FAD3B0BDA0
:101300007047000040F21441C4F201010A68024231
:1013100014BF08607047FFF7F3BF00002DE9F04FDE
:1013200083B00E68002E00F0C68000F1200241F26A
:10133000004C009200F13847C4F6000C06224FEA38
:10134000B725604508BF0522052D38BF4FEAB722F3
:10135000002500274FF0000A01920AE00E680AF10A
:10136000010A36FA0AF207F1020705F1040500F056
:10137000A280012202FA0AFC16EA0C09EED0D1F88A
:1013800004B003220BF00308A8F10106012E02FAB3
:1013900007F610D8D0F808E0CC682EEA0602BC4068
:1013A000224382604268CBF3001422EA0C0204FA62
:1013B0000AF422434260B8F1030F1ED0C2688C6861
:1013C000B243BC402243B8F1020FC26015D16FF0A6
:1013D0000302009C02EA5A0B54F80BC005F01C03F0
:1013E0000F22D1F8108002FA03FE2CEA0E0C08FA44
:1013F00003F343EA0C0344F80B3002684B68B24332
:1014000003F00306BE40324313F4403F0260A5D010
:1014100041F26003C4F202031A6840F2004E42F047
:1014200001021A601A68C4F2010E02F0010202926F
:10143000029A2AF003024FF6084C7244CFF6FF7C62
:1014400052F80C3005F00C060F24B440A343019C65
:1014500004FA06F6334342F80C30DEF808204B68F5
:1014600042EA090640F20C4CDC0258BF22EA0906A7
:10147000CEF80860C4F2010CDCF800209C0242EABD
:10148000090658BF22EA0906CCF80060DEF80420FD
:101490009C0342EA090658BF22EA0906CEF8046016
:1014A000DEF80020DB0342EA090658BF22EA0906FB
:1014B000CEF8006052E703B0BDE8F08F1823002A91
:1014C00008BF2823C150704740F2A450C2F2000068
:1014D0000068704790F84120202A03D190F84020FE
:1014E000012A01D102207047242280F8412002689D
:1014F000136823F001031360136823F4805313600F
:10150000136819431160116841F001011160202135
:1015100080F84110002180F8401000207047000042
:1015200090F84120202A03D190F84020012A01D1CF
:1015300002207047242280F841200268136823F0BB
:1015400001031360136823F4706343EA01211160FF
:10155000116841F001011160202180F84110002143
:1015600080F8401000207047002804BF0120704719
:1015700010B590F8411031B9002180F840100446B0
:1015800000F046F82046242180F8411090E806102B
:10159000C4680B6822F0706223F001030B600A61DB
:1015A0008A68012C22F400428A604FF4044208BF8A
:1015B0004FF4004242EA0C028A604A68022C22F48C
:1015C000006208BF02F500624A604A6800F1100438
:1015D00042F0007242F400424A60CA6822F40042BB
:1015E000CA601CCC1A4342EA0422CA60D0E907232D
:1015F0001A430A600A6842F001020A6000212022B0
:10160000416480F84120016380F84210002010BD41
:101610002DE9F0419AB00446002501A85021199502
:10162000CDE91755CDE91555FEF72AFE206845F29C
:101630000041C4F20001884202D01AB0BDE8F08136
:101640004020019001A8089500F07EF9002818BFFD
:10165000FFF730F941F24C05C4F20205286815ACD9
:1016600040F00100286028684FF0120800F00100E7
:10167000009000982868002740F002002860286841
:10168000042600F00200009000984FF400401590EE
:101690004FF090402146CDF85880CDE91777199644
:1016A000FFF73CFE8020CDE9150840F20040C4F66B
:1016B00000002146CDE917771996FFF72FFEE8685D
:1016C00040F40010E860E86800F400100090009812
:1016D0001AB0BDE8F081000040F2100040F2A451C1
:1016E000C2F20000C2F2000100680A6810440860FB
:1016F0007047000080B5032000F092F80F2000F042
:1017000009F800281CBF012080BD00F031F800203E
:1017100080BD000040F21001C2F2000109680029FA
:1017200004BF0120704710B5044640F20800C2F221
:1017300000004FF47A720068B2FBF1F1B0FBF1F0F7
:1017400000F0C4FE01460F2C4FF001000ED8002916
:1017500018BF10BD4FF0FF302146002200F034F8D2
:1017600040F214010020C2F200010C6010BD000024
:1017700082B041F25800C4F20200816841F00101D8
:101780008160816801F0010101910199016841F0D6
:1017900080510160006800F080500090009802B015
:1017A00000F0C8B8002848BF704700F01F010122B0
:1017B00002FA01F11C2202EAD0004EF20012CEF22F
:1017C000000281507047000010B54EF60C5CCEF25E
:1017D000000CDCF80030C3F3022E8EF00704042C5A
:1017E00028BF0424BEF103034FF0FF3E0EFA04F4B9
:1017F00038BF0023A14399400EFA03F39A431143E3
:1018000000F1604200F00F03090102F56442043B5D
:101810006344002848BF03F10C02117010BD0000A2
:101820004EF60C51CEF200010A684FF6FF031A4043
:1018300060F30A2242F0806040F0FD70086070475B
:1018400047F2000CC4F2000CDCF80020B0F5007F79
:1018500035D0002866D1DCF8800002F4C06220F4A4
:101860008070B2F5806FCCF8800026D1DCF80000E3
:10187000012262F34A20CCF8000040F20800C2F2D4
:1018800000000068322358434DF68363C4F21B33D3
:10189000A0FB030302EB9340002200BFDCF814100E
:1018A000013842F10003490501D5002BF6D1DCF8DF
:1018B0001400400544BF0320704700207047DCF847
:1018C000800002F4C06140F48070B1F5806FCCF804
:1018D0008000F2D1DCF80000012161F34A20CCF84D
:1018E000000040F20800C2F20000006832225043BB
:1018F0004DF68362C4F21B32A0FB020201EB924060
:10190000002200BFDCF81410013842F10003490541
:1019100001D5002BF6D1DCF81400400544BF0320AC
:101920007047CAE7022060F34A22CCF8002000206A
:101930007047000047F20800C4F20000016841F45B
:1019400080410160704700002DE9F04381B081467D
:10195000807841F288060007C4F2020601D4002014
:101960004AE056F8300C5FEAC0080BD456F8300C49
:1019700040F0805046F8300C56F8300C00F08050A3
:101980000090009847F20004C4F20004206840F47C
:1019900080702060FFF798FD054600BF2068C705EE
:1019A00008D4FFF791FD401B0328F7D30320002F35
:1019B00003D418E00020002F15D5B16811F4407150
:1019C00000F01E81D9F84C20914240F01E81C907D9
:1019D00040F02A8138B9B068D9F84C1020F4407032
:1019E0000843B0600020B8F1000F05D456F8301C51
:1019F00021F0805146F8301CD9F80010CA0714D1E4
:101A00008A071BD44A0722D40A0729D4CA0630D42D
:101A10008A0637D44A063ED40A0645D4CA054CD4B1
:101A20008A0553D44A055AD469E03268D9F804309B
:101A300022F003021A4332608A07E3D53268D9F8EC
:101A4000083022F00C021A4332604A07DCD53268B3
:101A5000D9F80C3022F030021A4332600A07D5D58B
:101A60003268D9F8103022F0C0021A433260CA0638
:101A7000CED53268D9F8143022F440721A4332605D
:101A80008A06C7D53268D9F8183022F440621A4362
:101A900032604A06C0D53268D9F81C3022F4405270
:101AA0001A4332600A06B9D53268D9F8203022F4D8
:101AB00040421A433260CA05B2D53268D9F82430A0
:101AC00022F440321A4332608A05ABD53268D9F825
:101AD000283022F440221A4332604A050FD532687A
:101AE000D9F82C3022F440121A43B3F5801F32602B
:101AF00005D156F87C2C42F4801246F87C2C0A055D
:101B00000FD53268D9F8303022F440021A43B3F5C9
:101B1000800F326005D156F87C2C42F4801246F8D2
:101B20007C2CCA040FD53268D9F8343022F04072C8
:101B30001A43B3F1807F326005D156F87C2C42F411
:101B4000801246F87C2C8A040FD53268D9F83830D8
:101B500022F040621A43B3F1006F326005D156F8AB
:101B60007C2C42F4801246F87C2C4A040FD5326853
:101B7000D9F83C3022F040621A43B3F1006F326072
:101B800005D156F87C2C42F4801246F87C2C0A04CD
:101B90000FD53268D9F8403022F040521A43B3F1E1
:101BA000805F326005D156F87C2C42F4803246F8D2
:101BB0007C2CCA030FD53268D9F8443022F0404259
:101BC0001A43B3F1804F326005D156F87C2C42F4B1
:101BD000803246F87C2C49030FD57169D9F848202A
:101BE00021F440111143B2F5001F716105D156F87F
:101BF0007C1C41F4801146F87C1C01B0BDE8F083E8
:101C00000021C9073FF4E6AE0EE0B168B26821F4E6
:101C1000407142F48032B260B26822F48032B26025
:101C2000B160C9073FF4D6AE0446FFF74DFC054648
:101C300041F28937B068800709D4FFF745FC401BA3
:101C4000B842F7D3032000287FF4CDAEC3E6204688
:101C500000287FF4C8AEBEE62DE9F047002800F06A
:101C6000FE8042F2000AC4F2020A0446DAF80000DA
:101C70000D4600F00F0081420DD9DAF8000020F087
:101C80000F002843CAF80000DAF8000000F00F0047
:101C9000A84240F0E480216841F20808C807C4F275
:101CA00002080CD14FF00009206881074BD4B9F12C
:101CB000000F61D0D8F8000020F0F0005AE0606812
:101CC00058F8082C022800F0C880032840F0CA8089
:101CD000920140F1C480D8F80420D8F8043042F2D0
:101CE0000046C3F3031302F00302D8F80470013373
:101CF000C0F2F406032A04BF41F20026C0F27A06BD
:101D0000B6FBF3F2D8F80430C7F306277A43C3F3DF
:101D10004163022707EB4303B2FBF3F24BF20043AC
:101D2000C0F2C4439A4240F2E480D8F8002012F096
:101D3000F00F00F0D480890740F1DB80A168002912
:101D400040F0D780CBE0410705D5D8F8001041F42A
:101D5000E061C8F80010000706D5D8F80000072198
:101D600061F30D20C8F80000D8F80000A16820F049
:101D7000F0000843C8F80000DAF8000000F00F0097
:101D8000854219D2DAF8000020F00F002843CAF883
:101D90000000FFF799FB064641F28837DAF80000A9
:101DA00000F00F00A84207D0FFF78EFB801BB8425F
:101DB000F4D90320BDE8F0872068410707D5D8F89B
:101DC0000010E26821F4E0611143C8F80010000738
:101DD00008D5D8F80000216920F4605040EAC1001D
:101DE000C8F80000D8F8000042F20041C0F2F40147
:101DF00000F00C000428084600F09C80D8F8000091
:101E000000F00C00082841F20020C0F27A0000F037
:101E10009180D8F8002002F00C020C2A40F0898052
:101E2000D8F80420D8F8043002F00302C3F30313F7
:101E3000D8F804700133032A08BF0146B1FBF3F060
:101E4000D8F80410C7F30627C1F341610222784392
:101E500002EB4101B0FBF1F06CE0910304D40120EE
:101E6000BDE8F0875105FAD5D8F8001001F00C0153
:101E700004293ED0D8F8001001F00C01082938D010
:101E8000D8F8001001F00C010C2932D1D8F8041058
:101E9000D8F8042042F20047C2F3031201F0030114
:101EA000D8F804300132C0F2F407032904BF41F22C
:101EB0000027C0F27A07B7FBF2F1D8F80420C3F389
:101EC00006235943C2F34162022303EB4202B1FBF2
:101ED000F2F14BF20042C0F2C442914209D9D8F863
:101EE0000010082262F307114FF00109C8F8001032
:101EF00001E04FF00009D8F8001021F00301084379
:101F0000C8F80000FFF7E0FA064641F2883700BF44
:101F1000D8F80000616800F00C00B0EB810F3FF4CE
:101F2000C3AEFFF7D1FA801BB842F1D90320BDE858
:101F3000F0870020D8F8001046F6A412C1F3031170
:101F4000C0F60002515C40F2080201F01F0120FAC5
:101F500001F140F21400C2F200000068C2F2000277
:101F60001160BDE8F047FFF7D5BB000040F2080064
:101F700041F20801C2F20000C4F2020100680968DF
:101F800046F6B412C1F30221C0F60002515C01F022
:101F90001F01C8407047000040F2080041F20801EC
:101FA000C2F20000C4F202010068096846F6B412E9
:101FB000C1F3C221C0F60002515C01F01F01C8400C
:101FC0007047000041F20C01C4F2020151F8040C08
:101FD00042F20042C0F2F40200F00C000428104665
:101FE00008BF704751F8040C00F00C00082841F2BB
:101FF0000020C0F27A0025D051F8043C03F00C0315
:102000000C2B1CBF0020704780B5D1F800C00B68B6
:102010000CF0030CC3F3031E0B680EF1010EBCF1B0
:10202000030F08BF02460968B2FBFEF0C3F30623A4
:10203000C1F341610222584302EB4101B0FBF1F0D0
:10204000BDE8804070470000002804BF01207047B1
:102050002DE9F04182B00446007841F20006C00745
:10206000C4F202061DD12078800737D420780007FB
:102070005AD42078400778D42078800600F1BF80B9
:10208000E569002D00F01E82B06800F00C000C28FD
:1020900040F01E81012D40F09881012002B0BDE882
:1020A000F081B06800F00C01F068082954D00322D8
:1020B00081F00C0122EA00000844B0FA80F04009E7
:1020C0004AD165683068B5F5A02F00F0C680B5F537
:1020D000803F40F0C98040F48030CBE0B068F168C8
:1020E00000F00C00042864D001F0030180F00C0023
:1020F00081F002010844B0FA80F0400959D1E1684A
:102100003068002900F0D18040F480703060FFF723
:10211000DBF905463068400500F1FC80FFF7D4F993
:10212000401B0228F6D936E16169D6F894000029EF
:1021300000F0818040F00100C6F89400FFF7C4F978
:10214000054600BFD6F89400800792D4FFF7BCF98B
:10215000401B0228F6D91EE1306880037FF583AF6B
:10216000606800287FF47FAF39E0B06D5FEAC00897
:1021700008D4B06D40F08050B065B06D00F0805074
:102180000190019847F20007C4F200073868C005C3
:1021900029D4386840F480703860FFF795F9054617
:1021A0003868C0051FD4FFF78FF9401B0228F7D904
:1021B000F1E03068400501D5E06880B170682169C0
:1021C00020F0FE4040EA0160706040F21400C2F26C
:1021D00000000068FFF79EFA00283FF447AF012097
:1021E00002B0BDE8F081A568D6F89000052D00F09A
:1021F000AE80012D40F0B48040F00100B8E0A1694C
:10220000D6F89800002900F08D8040F00100C6F853
:102210009800FFF759F90546D6F8980080073FF572
:102220002FAFFFF751F9401B02284FF00300F3D9FD
:1022300002B0BDE8F08120F00100C6F89400FFF77D
:1022400043F90546D6F8940080077FF512AFFFF7F3
:102250003BF9401B0228F5D99DE040F48020306016
:10226000306840F4803005E020F480303060306821
:1022700020F480203060FFF727F9002D054610D0AC
:10228000306880033FF5EFAEFFF71EF9401B64286E
:10229000F6D980E0FFF718F9401B64284FF00300DF
:1022A000C6D830688003F5D4DDE620F48070306055
:1022B000FFF70AF9054600BF306840057FF5D6AE46
:1022C000FFF702F9401B02284FF00300F4D9AFE7F3
:1022D000306820F080703060FFF7F6F8022D054678
:1022E0000CD100BF3068800140F1A880FFF7ECF806
:1022F000401B02284FF00300F4D999E730688001B1
:1023000040F1D980FFF7E0F8401B02284FF00300AE
:10231000F4D98DE77068216920F0FE4040EA016041
:102320007060A3E620F00100C6F89800FFF7CCF833
:10233000054600BFD6F8980080077FF5A1AEFFF7ED
:10234000C3F8401B02284FF00300F3D970E740F0B8
:102350000400C6F89000D6F8900040F0010007E0B5
:1023600020F00100C6F89000D6F8900020F004009C
:10237000C6F89000FFF7A8F8002D054641F288370F
:1023800016D000BFD6F89000800715D4FFF79CF850
:10239000401BB842F6D9032002B0BDE8F08100BF6F
:1023A000FFF792F8401BB8424FF003003FF640AFF2
:1023B000D6F890008007F3D4B8F1000F3FF55CAE7B
:1023C000B06D20F08050B06556E6F068216A00F0EC
:1023D00003028A427FF403AF626A6FF00F0300F0DA
:1023E000F00103EB021291427FF4F9AEA16A00F40E
:1023F000FE42B2EB012F7FF4F2AEE16A00F07842C8
:10240000B2EBC16F7FF4EBAE226B0023CFF6E0732B
:1024100003EA025200F4C001A2F5001291427FF4D7
:10242000DEAE616B4FF07E4202EA016100F0C060F7
:1024300001F17E4188427FF4D2AE43E0F06848F279
:102440000C01C0F29F1104F1200700EA010C8ECFAD
:102450006FF00F00D4E90C5400EB02100022CFF60D
:10246000E07241EA0C0102EA05520843A2F50012AB
:102470004FF07E4540EA032005EA0465104305F16C
:102480007E4540EAC7602843F060306840F08070C5
:102490003060F06840F08070F060FFF715F8044697
:1024A000306880010ED4FFF70FF8001B02284FF0B0
:1024B0000300F5D9BCE6F0684FF6FC71CFF6EE618B
:1024C0000840F060002002B0BDE8F081411E00200D
:1024D000B0EB116F1CBF012070474EF21002CEF21C
:1024E000000251604EF62351CEF20001F0230B7032
:1024F000072190601160704770470000704700002E
:1025000070470000704700007047000070470000EF
:1025100090F83C20012A4FF002025DD070B50123F3
:1025200080F83C3080F83D20026842F6004C546848
:102530009368C4F2010C45F2000E6245C4F2010E2C
:1025400018BF72452CD14D6824F470042C434FF60B
:102550008F75CFF6FF550E682C4042F6FF35C4F25A
:1025600001053443AA4254600ADD43F6FF74C4F205
:102570000104A2421BDC624521D043F200461AE06E
:10258000B2F1804F1BD040F20046C4F20006B242C6
:1025900015D040F60006C4F20006B2420FD013E098
:1025A00043F20045C4F20105AA42CCD0CFE7724500
:1025B00005D044F20006C4F20106B24204D1896893
:1025C00023F08003194391600121002280F83D101F
:1025D00080F83C20BDE8704010467047704700000E
:1025E000002804BF0120704710B5044690F83D0054
:1025F00028B9002084F83C00204600F023F802208F
:1026000084F83D002068211D02F0B8FC012084F808
:10261000480084F83E0084F83F0084F8400084F8C5
:10262000410084F8420084F8430084F8440084F8B0
:10263000450084F8460084F8470084F83D000020F7
:1026400010BD0000006841F20001C4F200018842A0
:1026500018BF704780B582B041F25800C4F2020042
:102660000168002241F0100101600068002100F0C3
:102670001000019001983620FFF7A6F8362002B02E
:10268000BDE88040FFF78EB890F83D1001291CD1BD
:10269000022180F83D10016842F6FF32C868C4F29A
:1026A0000102914240F00100C86010DD43F6FF7066
:1026B000C4F2010081421ADC42F60040C4F201007B
:1026C000814220D043F2004019E001207047B1F16F
:1026D000804F18D040F20040C4F20000814212D076
:1026E00040F60000C4F2000081420CD018E045F230
:1026F0000000C4F20100814205D044F20000C4F29F
:10270000010081420CD188680722C0F20102024018
:10271000062A4FF00000D9D0B2F5803F08BF7047BD
:10272000086840F001000860002070477047000012
:10273000F0B581B004460068C5680669B10716D5D2
:1027400015F0020113D06FF0020101610121217720
:102750008069800703D02046FFF7E8FF05E02046A8
:1027600000F078FA204600F017FD0020207770076F
:1027700018D515F0040015D020686FF00401016130
:1027800002212177806910F4407F03D02046FFF7B3
:10279000CDFF05E0204600F05DFA204600F0FCFC8D
:1027A00000202077300717D515F0080014D02068D6
:1027B0006FF00801016104212177C069800703D00F
:1027C0002046FFF7B3FF05E0204600F043FA20461D
:1027D00000F0E2FC00202077F00618D515F010007C
:1027E00015D020686FF01001016108212177C069C0
:1027F00010F4407F03D02046FFF798FF05E0204605
:1028000000F028FA204600F0C7FC00202077F007EF
:1028100018BF15F0010006D020686FF001010161BA
:10282000204600F065FD16F4025F05F0800718BF32
:10283000002F02D1F00509D410E020686FF4025196
:1028400001612046FFF75AFEF00507D537B1206831
:102850006FF4807101612046FFF74EFE700609D5C6
:1028600015F0400006D020686FF04001016120465D
:1028700000F05AFDB00609D515F0200006D02068FA
:102880006FF0200101612046FFF73AFEF00209D502
:1028900015F4801006D020686FF480110161204685
:1028A000FFF732FEB00209D515F4001006D02068FB
:1028B0006FF4001101612046FFF724FE700209D574
:1028C00015F4800006D020686FF480010161204675
:1028D000FFF71CFE30020CD515F4000009D021686A
:1028E0006FF4000220460A6101B0BDE8F040FFF736
:1028F00075BE01B0F0BD000090F83C30012B04BF64
:10290000022070474FEAB2020123052A80F83C30CA
:1029100000F29A81F0B5DFE812F0060014017800A9
:10292000C600470062010268146A136AA2F180457A
:1029300023F0010313625368D2F818C08E68A5F51E
:102940009635D1F800E024F002044FEAB525092DB0
:1029500044EA06040BD80126AE4040F2E5273E4289
:102960001FBFCE6824F00C0426F004063443092D62
:102970000CD8012606FA05F540F2E52635421FBFC0
:10298000D1E9055623F440732B4333434FF68C753E
:10299000CFF6FE750CEA050747EA0E07536097610C
:1029A0004968516314624CE10268D2F820C0136A8E
:1029B000A2F1804623F480331362A6F5963653685D
:1029C000156D0C68D1F808E04FEAB626092E0BD831
:1029D000012707FA06F640F2E5273E421EBF4E6980
:1029E00023F4803343EA06234FF68C76CFF6FE7647
:1029F0000336354045EA0406536016652CF400376B
:102A0000496847EA0E4391641AE1026842F60045BC
:102A1000146A136AC4F2010523F4807313625368C5
:102A2000D2F81CC0AA428D68D1F800E024F40074EA
:102A300044EA05240BD045F20005C4F20105AA4280
:102A400005D043F20045C4F20105AA4207D1CD6882
:102A500040F2FF462D0224F44064B5432C43A2F11A
:102A60008045A5F596354FEAB525092D0DD80126E7
:102A700006FA05F540F2E52635421FBFD1E90556B5
:102A800023F44053354343EA05134FF68C75CFF6D4
:102A9000FE750CEA050747EA0E075360D7614968DF
:102AA000D1631462CDE0026842F60045146A136AED
:102AB000C4F2010523F4805313625368D2F81CC09A
:102AC000AA428D68D1F800E024F4005444EA0534A9
:102AD0000BD045F20005C4F20105AA4205D043F22D
:102AE0000045C4F20105AA4207D1CD6844F6FF763D
:102AF0002D0324F44044B5432C43A2F18045A5F5B1
:102B000096354FEAB525092D0DD8012606FA05F5AB
:102B100040F2E52635421FBFD1E9055623F4404374
:102B2000354343EA851348F6FF45CFF6FF650CEAC7
:102B3000050747EA0E275360D7614968116414629C
:102B40007FE0026842F60045146A136AC4F2010588
:102B500023F0100313625368D2F818C0AA428D689C
:102B6000D1F800E024F0200444EA05140BD045F22B
:102B70000005C4F20105AA4205D043F20045C4F2A3
:102B80000105AA4207D1CD686FF0400624F0C004C9
:102B900006EA05152C43A2F18045A5F596354FEAC6
:102BA000B525092D0DD8012606FA05F540F2E526D2
:102BB00035421FBFD1E9055623F44063354343EA4C
:102BC000850348F6FF45CFF6FF650CEA050747EA9F
:102BD0000E275360976149689163146231E002687F
:102BE000D2F820C0136AA2F1804623F48013136246
:102BF000A6F596365368156D0C68D1F808E04FEAD3
:102C0000B626092E0BD8012707FA06F640F2E5276B
:102C10003E421EBF4E6923F4802343EA862348F6D2
:102C2000FF46CFF6FF6606F54076354045EA0426B6
:102C30005360166549682CF4001747EA0E53D164B7
:102C400013620023BDE8F040002180F83C101846D4
:102C50007047000070470000002804BF0120704743
:102C600010B5044690F83D0028B9002084F83C00D7
:102C7000204600F023F8022084F83D002068211D42
:102C800002F07CF9012084F8480084F83E0084F8C2
:102C90003F0084F8400084F8410084F8420084F842
:102CA000430084F8440084F8450084F8460084F822
:102CB000470084F83D00002010BD0000006840F28D
:102CC0000041C4F20001884218BF704780B582B04D
:102CD00041F25800C4F202000168002241F00201F2
:102CE00001600068002100F00200019001981D20A1
:102CF000FEF76AFD1D2002B0BDE88040FEF752BD20
:102D000090F83C30012B04BF022070474FEAB2021A
:102D10000123052A80F83C3000F2E4812DE9F041DE
:102D2000DFE812F0060044019000EA0053009C0125
:102D300003681D6A1A6AA3F1804622F001021A6232
:102D40001A46D3F8048052F818CF8F68A6F5963645
:102D5000D1F800E025F002054FEAB626092E45EA33
:102D600007050BD80127B74040F2E52427421FBFD3
:102D7000CC6825F00C0524F004042543092E0CD85A
:102D80000124B44040F2E52634421FBFD1E9054694
:102D900028F440773C4344EA06084FF68C74CFF69B
:102DA000FE740CEA040747EA0E07C3F804809F612B
:102DB0004F6809695F631D629F6947F008079F615B
:102DC0009F6927F004079F6186E10368D3F820C05C
:102DD0001A6AA3F1804722F480321A621A46A7F5D4
:102DE00096375D6852F8508FD1F800E08E684FEA50
:102DF000B727092F0AD80124BC4040F2E5273C42FE
:102E00001EBF4C6925F4803545EA04252CF40037B3
:102E100047EA06474FF68C76CFF6FE76033606EA8B
:102E2000080646EA0E065D601E654E6809699E64E6
:102E30001F621F6D47F008071F651F6D27F004070D
:102E40001F6549E1036842F600461D6A1A6AC4F22A
:102E5000010622F480721A621A46D3F804C052F8AE
:102E60001CEFB3428E68D1F8008025F4007545EA66
:102E700006250BD045F20006C4F20106B34205D088
:102E800043F20046C4F20106B34207D1CE6840F2D5
:102E9000FF47360225F44065BE433543A3F1804623
:102EA000A6F596364FEAB626092E0DD8012707FA61
:102EB00006F640F2E5273E421FBFD1E905672CF434
:102EC0004054374344EA071C4FF68C74CFF6FE7427
:102ED0000EEA040747EA0807C3F804C0DF614F6839
:102EE0000969DF631D62DF6947F00807DF61DF6999
:102EF00027F00407DF61EFE0036842F600461D6A31
:102F00001A6AC4F2010622F480521A621A46D3F8F1
:102F100004C052F81C8FB3428E68D1F800E025F44B
:102F2000005545EA06350BD045F20006C4F201060D
:102F3000B34205D043F20046C4F20106B34207D1C2
:102F4000CE6844F6FF77360325F44045BE4335434B
:102F5000A3F18046A6F596364FEAB626092E0DD87F
:102F6000012707FA06F640F2E5273E421FBFD1E9E6
:102F700005672CF44044374344EA871C48F6FF4475
:102F8000CFF6FF6404EA080444EA0E27C3F804C03D
:102F9000DF614F6809691F641D62DF6947F40067DC
:102FA000DF61DF6927F48067DF6194E0036842F640
:102FB00000461D6A1A6AC4F2010622F010021A6263
:102FC0001A465C6852F818CFB3428E68D1F800E018
:102FD00025F0200545EA06150BD045F20006C4F29F
:102FE0000106B34205D043F20046C4F20106B342E3
:102FF00007D1CE686FF0400725F0C00507EA061636
:103000003543A3F18046A6F596364FEAB626092E3B
:103010000DD8012707FA06F640F2E5273E421FBF0A
:10302000D1E9056724F440643E4344EA860448F647
:10303000FF46CFF6FF660CEA060747EA0E275C60FC
:103040009F614F6809699F631D629F6947F400672C
:103050009F619F6927F480679F613CE00368D3F814
:1030600020C01A6AA3F1804722F480121A621A461D
:10307000A7F596375D6852F8508FD1F800E08E685A
:103080004FEAB727092F0AD80124BC4040F2E527B0
:103090003C421EBF4C6925F4802545EA84252CF46A
:1030A000001747EA065748F6FF46CFF6FF6606F5D3
:1030B000407606EA080646EA0E265D601E654E6802
:1030C0000969DE641F621F6D47F400671F651F6D8D
:1030D00027F480671F6509021368194300231160F4
:1030E000BDE8F041002180F83C1018467047000010
:1030F000002804BF0120704710B5044690F83D0039
:1031000028B9002084F83C00204600F023F8022073
:1031100084F83D002068211D01F030FF012084F873
:10312000480084F83E0084F83F0084F8400084F8AA
:10313000410084F8420084F8430084F8440084F895
:10314000450084F8460084F8470084F83D000020DC
:1031500010BD0000006840F60001C4F20001884282
:1031600018BF704780B582B041F25800C4F2020027
:103170000168002241F0040101600068002100F0B4
:103180000400019001981E20FEF71EFB1E2002B0D5
:10319000BDE88040FEF706BB7047000080B559B11E
:1031A0000B1F4FEAB30C43224FF03F0EBCF1040F4C
:1031B00038BF0EEBB30200E03E22825C012A1CBF46
:1031C000012080BD61B10A1F4FEAB202032A17D85D
:1031D000DFE802F002120A0E022280F83F2012E01D
:1031E000022280F83E200EE0022280F841200AE010
:1031F000022280F8422006E0022280F8402002E00D
:10320000022280F84320026801F01F000121136AA6
:1032100001FA00F083431362136A18431062A2F1AB
:103220008040A0F596304FEAB02342F6FF30072BDE
:10323000C4F2010025D8994011F0E50F21D0516C5E
:10324000824241F40041516430DD43F6FF70C4F224
:103250000100824208DC42F60040C4F201008242D2
:1032600033D043F2004007E045F20000C4F2010011
:1032700082422AD044F20000C4F20100824224D0EB
:1032800030E0824212DD43F6FF71C4F201018A424E
:10329000E1DD44F20001C4F201018A4215D045F299
:1032A0000001C4F201018A42C9D01BE0B2F1804F93
:1032B0000BD040F20040C4F20000824205D040F63C
:1032C0000000C4F2000082420CD190680721C0F2D5
:1032D0000101014006294FF0000008D0B1F5803F00
:1032E00008BF80BD106840F001001060002080BD64
:1032F000006841F20001C4F20001884218BF704723
:1033000040F28A50C2F200000078012808BF01F0A4
:103310008FB840F63400C4F200004FF4FA71016037
:1033200040F60701416070477047000090F8841034
:10333000012904BF022070472421C0F888100168C9
:103340000A680B6822F0005223F001030B6000238F
:1033500043660A602021C0F8881080F8843000207D
:1033600070470000B0B50446006843F60001C4F29F
:103370000101884218BFB0BD40F28035C2F200059D
:10338000286810210162284600F0B4F8D4F88000C3
:1033900040F248510068C2F20001406881F83E00E6
:1033A0001E2081F83E00D5F8800000684068C0F11A
:1033B0001E0081F83E00012081F83F00B0BD0000F2
:1033C0007047000090F88420012A04BF0220704753
:1033D000B0B50123242280F88430C0F88820026828
:1033E000D0F864E0D2F800C01468BEF1000F24F0F9
:1033F00001041460946824F0606441EA040191605F
:103400001BD09168936846F6E41E5B0FC0F6000E71
:1034100046F6EC151EF80340C0F60005EB5CE40030
:10342000B4FBF3F3C1F34261A0F86A301EF8013037
:10343000695CDB00B3FBF1F301E0A0F86A30202106
:10344000A0F86830C2F800C0C0F88810002180F8E9
:1034500084100020B0BD000090F88420012A04BF31
:1034600002207047B0B50123242280F88430C0F8D0
:1034700088200268D0F864E0D2F800C01468BEF179
:10348000000F24F001041460946824F0604441EAC1
:10349000040191601BD09168936846F6E41E5B0FAF
:1034A000C0F6000E46F6EC151EF80340C0F6000507
:1034B000EB5CE400B4FBF3F3C1F34261A0F86A30C3
:1034C0001EF80130695CDB00B3FBF1F301E0A0F80A
:1034D0006A302021A0F86830C2F800C0C0F8881017
:1034E000002180F884100020B0BD0000704700006B
:1034F00070470000B0B501680446D0F88800D4F8E1
:103500008C50896809062CD521282AD1206850E8DA
:10351000020F216820F0800041E80202002AF5D164
:10352000E06F38B1FDF70CFD20B1E06FFDF780FDD5
:10353000202835D0206850E8000F216820F0C00016
:1035400041E80002002AF5D1206850E8020F216806
:1035500020F4000041E80202002AF5D12020C4F83E
:1035600088002068806840064FF0000048D5222D72
:1035700018BFB0BD206850E8020F216820F040005D
:1035800041E80202002AF5D1D4F8800070B1FDF7BD
:10359000D7FC58B1D4F88000FDF74AFD202805D1AA
:1035A0001020C4F890000320B0BD00BF206850E890
:1035B000000F216820F4907041E80002002AF5D144
:1035C0004FF6FE70CEF6FF70216851E8021F2268A8
:1035D000014042E80213002BF6D1E06E012809D128
:1035E000206850E8000F216820F0100041E8000238
:1035F000002AF5D12020C4F88C000020E066606726
:10360000B0BD00007047000070B5046840F62F039D
:10361000E2692168A6681340202B05D101F0200340
:1036200006F080555B1938D140F60F0313400CD0DB
:103630000123C1F2000306EA030C40F22013C0F29A
:1036400000430B4013EB0C032DD1C36ED50616D5EA
:10365000012B14D111F0100311D010212162A168A7
:10366000490600F1FC80B0F85C10B0F85E20B0F8BC
:103670005E30002B18BF914240F05B8170BDD302D9
:1036800040F1CB8016F4800300F0C7804FF4801126
:103690002162BDE87040FFF72BBF416F0029EDD0DC
:1036A000BDE870400847D30718BF11F4807307D0F6
:1036B00001232362D0F8903043F00103C0F890302A
:1036C000930706F0010E0AD5BEF1000F07D00223C2
:1036D0002362D0F8903043F00403C0F890305307D1
:1036E0000AD5BEF1000F07D004232362D0F8903032
:1036F00043F00203C0F8903013070CD501F020030B
:1037000053EA0C0307D008232362D0F8903043F02B
:103710000803C0F8903013050BD511F0806308D072
:103720004FF400632362D0F8903043F02003C0F8D8
:103730009030D0F89030002BA0D092060AD501F03E
:10374000200106F08052891804D0416F11B104465F
:10375000884720460168D0F89020896802F0280246
:1037600001F04001891807D10446FFF74BFF002004
:10377000C4F8900070BD00BF016851E8001F0268E6
:1037800021F4907142E80013002BF5D14FF6FE7141
:10379000CEF6FF71026852E8022F03680A4043E840
:1037A0000226002EF6D1C16E012909D1016851E827
:1037B000001F026821F0100142E80013002BF5D130
:1037C0002021C0F88C100021C16602684167916811
:1037D000490640F1A18000BF016851E8021F02685C
:1037E00021F0400142E80213002BF5D1D0F88010FF
:1037F000002900F0918045F25D22C0F600020446E7
:1038000008468A63FDF7D4FB00283FF437AFD4F8AD
:103810008000816BBDE870400847130606D501F0B3
:10382000800306F400069B1940F0B380530677D559
:1038300011F0400374D000BF016851E8001F026816
:1038400021F0400142E80013002BF5D12021C0F8FF
:10385000881000218167BDE8704000F02FBBD0F8D0
:1038600080100A6851688BB2002B4AD0B0F85C60B7
:10387000B34246D2A0F85E101168890635D400BF65
:10388000016851E8001F026821F4807142E80013CA
:10389000002BF5D1016851E8021F026821F00101F7
:1038A00042E80213002BF5D1016851E8021F0268BB
:1038B00021F0400142E80213002BF5D12021C0F88D
:1038C0008C100021C16600BF016851E8001F02682A
:1038D00021F0100142E80013002BF5D1D0F8801040
:1038E00004460846FDF72CFB204602210167B0F88C
:1038F0005C10B0F85E20891A89B2BDE87040FFF70D
:1039000031BDB0F85C1099427FF4B8AE12689206EF
:103910007FF5B4AE022237E0BDE87040FFF772BE1B
:1039200013023DD511F080433AD0BDE87040FFF757
:10393000DDBD891A026852E8002F036822F49072F4
:1039400043E80026002EF5D14FF6FE72CEF6FF7248
:10395000036853E8023F0668134046E80235002D2D
:10396000F6D12022C0F88C200022C266426700BF38
:10397000026852E8002F036822F0100243E8002694
:10398000002EF5D1022289B20267BDE87040FFF730
:10399000E9BC816F00293FF471AEBDE87040084773
:1039A000D2017FF56BAEB1F1FF3FC8BF70BDBDE87E
:1039B0007040FFF705BD000010B5D0B10446D0F847
:1039C000880028B9002084F88400204600F026F8FA
:1039D0002420C4F888002068A16A026822F001024D
:1039E000026011B1204601F065FB204601F014FD94
:1039F00008B1012010BD2168486820F4904048605B
:103A0000886820F02A008860086840F0010220469B
:103A10000A60BDE8104001F0C1BB00002DE9F04193
:103A20009AB00446002601A850211996CDE91766E0
:103A3000CDE91566FCF724FC206844F20041C4F28D
:103A4000000188426CD043F60001C4F201018842B3
:103A500040F0D28001200190002601A80296FDF7D7
:103A600073FF002818BFFCF725FF41F24C00C4F299
:103A70000200416940F2080841F480414161416916
:103A8000C4F2020801F4804100910099016841F0FC
:103A900001010160006815A900F001000090009884
:103AA0004FF4C06015900220CDE91606072019904A
:103AB0004FF090401896FDF731FC40F2C405C2F279
:103AC0000005182080272021C5E900802846C5E987
:103AD0000266C5E90476C5E906612E62FDF7F8FACB
:103AE000002818BFFCF7E6FEC4F88050AC6240F234
:103AF000241508F11400C2F2000519211022002338
:103B000085E88F002846C5E90533C5E90733FDF789
:103B1000DFFA00284FF0250618BFFCF7CBFE61E066
:103B2000022501A801950396FDF70EFF002818BF96
:103B3000FCF7C0FE41F24C00C4F20200C16840F242
:103B4000080841F40031C160C168002601F4003169
:103B5000009100990168C4F2020841F0010101607E
:103B6000006815A900F00100009000980C20CDE934
:103B70001505072019904FF09040CDE91766FDF725
:103B8000CDFB40F2841508F12800C2F200051A218D
:103B90008027202285E843002846C5E90367C5E958
:103BA0000566C5E90726FDF793FA002818BFFCF75C
:103BB00081FEC4F88050AC6240F2E41508F13C008C
:103BC000C2F200051B21102285E8C7002846C5E97E
:103BD0000566C5E90766FDF77BFA4FF0260608B1D2
:103BE000FCF768FE304600210022E567AC62FDF775
:103BF000EBFD3046FDF7D6FD1AB0BDE8F0810000C0
:103C0000D0F88C30202B0AD194460A4600294FF078
:103C1000010118BFBCF1000F04D108467047022112
:103C200008467047B0B54FF0000EC0F86CE003686E
:103C300048F20004C4F20004A3420DD05B681B02EA
:103C40000AD500BF036853E8003F046843F080636F
:103C500044E800310029F5D122218265A0F85CC03A
:103C6000C0F890E0C0F88C10D0F880301BB345F25B
:103C70003131C0F6000145F2B53445F2692E03F149
:103C80002C07C0F60004C0F6000E87E81240016859
:103C900000259D632431044618466346FDF7AAFAC1
:103CA0000146204639B11021C0F890102021C0F8FB
:103CB0008C10012121E0016951B100BF016851E878
:103CC000001F026841F4807142E80013002BF5D117
:103CD000016851E8021F026841F0010142E8021345
:103CE000002BF5D1016851E8021F026841F0400144
:103CF00042E80213002BF5D10021BDE8B040084690
:103D00007047000070470000704700002DE9F04345
:103D100081B00446D0F88800202809D188460029BF
:103D20004FF0010018BF002A06D101B0BDE8F083B2
:103D3000022001B0BDE8F0830020C4F890002120EB
:103D40001D46C4F888001646FDF7BEFBA4F8546073
:103D5000A4F85660A1680646B1F5805F02D12069DB
:103D6000002852D0C1464FF00008B4F8560060B3A6
:103D70006F1C0FE0B9F1000F1ED019F8010B21687C
:103D80008862B4F856000138A4F85600B4F856001A
:103D9000D8B100BF2068C0690006EBD4002FF9D06D
:103DA000FDF792FB01464FF0030045B3891BA94282
:103DB00025D820680068EDE738F8020B21686FF31A
:103DC0005F2088624FF00009DBE72068C069400689
:103DD00014D46F1C04E000BF2068C06940060DD4F5
:103DE000002FF9D0FDF770FB01464FF0030035B10D
:103DF000891BA94203D820680068EDE70020202134
:103E0000C4F8881001B0BDE8F0834FF00009ACE7BA
:103E1000D0F88830202B09D1944600294FF00102B8
:103E200018BFBCF1000F04D11046704702221046A3
:103E30007047B0B5002221230165A0F854C0A0F856
:103E400056C0C0F89020C0F88830C36F13B345F255
:103E50006925C0F6000545F2D13445F2114E5D6387
:103E60000568C0F60004C0F6000EC3E90B4E9A6365
:103E700005F12802044618466346FDF7BBF90146E2
:103E8000204639B11021C0F890102021C0F88810C8
:103E900001220EE0016840220A6200BF016851E879
:103EA000021F026841F0800142E80213002BF5D1A5
:103EB0000022BDE8B0401046704700007047000087
:103EC00070470000FEE70000B0B588B040F2300057
:103ED00040F20011C2F20000C5F2000100244FF4CC
:103EE0004032042580E816000121CDE90644CDE9E1
:103EF0000444CDE90244CDE90044C0E90344C0E9EB
:103F000005458483016280F82440C0E90B4480F8B1
:103F10003840C46380F84040FCF78CFE002818BF8E
:103F2000FCF7C8FC0220C0F2304000900620CDE92A
:103F300001047F20CDE9030540F23000C2F2000009
:103F400069460594FCF7BCFC002818BFFCF7B2FCDE
:103F500008B0B0BD80B540F29C0040F60041C2F20E
:103F60000000C4F202010160FCF7B6FF002808BFA0
:103F700080BDBDE88040FCF79DBC000080B582B0EC
:103F800041F24800C4F202000168002241F004013D
:103F90000160016801F0040101910199016841F09B
:103FA000010101600068002100F00100009000980C
:103FB0000B20FDF709FC0B20FDF7F4FB0C20002182
:103FC0000022FDF701FC0C20FDF7ECFB0D20002189
:103FD0000022FDF7F9FB0D20FDF7E4FB0E20002188
:103FE0000022FDF7F1FB0E2002B0BDE88040FDF796
:103FF000D9BB00002DE9F04186B0002641F24C000B
:104000000596CDE90366CDE90166C4F202000168B8
:10401000002241F02001016001684FF4807701F037
:10402000200100910099016841F0010101600168DF
:1040300001F0010100910099016841F00201016065
:1040400000684FF4807100F00200009000984FF07B
:104050009040FDF733FA40F20044C4F600042046D5
:10406000302100224FF03008FDF728FA102001908F
:104070004FF4881001ADCDE902064FF0904029467B
:10408000FDF74CF9019701274FF090402946CDE903
:1040900002760496FDF742F90820CDE90106204694
:1040A00029460396FDF73AF920462946CDE90187CE
:1040B000CDE90366FDF732F90A2000210022FDF761
:1040C00083FB0A20FDF76EFB06B0BDE8F08100001F
:1040D00080B540F2442045F20041C2F20000C4F233
:1040E000000145F275020023C6F271024FF0010C87
:1040F00080E80E10C0E90433C0E906330362FDF71F
:1041000033FA002818BFFCF7D5FB40F24420C2F276
:1041100000000021FDF7DEF9002818BFFCF7CAFBFC
:1041200040F24420C2F200000021FDF7F9F9002816
:1041300008BF80BDBDE88040FCF7BCBB10B58AB0AD
:1041400040F29C2040F200410024C2F20000C4F280
:10415000000140F2E733CDE90844CDE90644CDE95A
:104160000444CDE90244CDE900448F2280E81600E2
:10417000C0E903348461FEF76FFD002818BFFCF727
:1041800099FB40F29C20C2F2000007A90794099411
:10419000FEF7BEF9002818BFFCF78CFB0020CDE924
:1041A00000000290049040F29C20C2F20000694698
:1041B0000422FEF7A1FB002818BFFCF77BFB0AB026
:1041C00010BD0000B0B590B040F6000540F2E82008
:1041D000C4F20005C2F200008F21002441F28732B0
:1041E000C0E900518021CDE90844CDE90644CDE97C
:1041F0000444CDE90244CDE90044C0E9024204612F
:104200008161FEF775FF002818BFFCF753FB2020E3
:10421000079040F2E820C2F2000007A90994FEF7D7
:1042200077F9002818BFFCF745FB6020009040F6A6
:10423000C410019000200290049040F2E820C2F2E5
:10424000000069460022FEF75BFD002818BFFCF75E
:1042500031FB40F2E8244FF4FA70C2F200040190FE
:10426000694620460422FEF74BFD002818BFFCF7E4
:1042700021FB21680020A9420F90CDE90D000C9090
:104280000B9001D010B0B0BD41F24C01C4F202015C
:104290000A6842F001020A60096801F001010A910E
:1042A0000A994FF4C0510B910221CDE90C100E90E8
:1042B0000A200F900BA94FF09040FDF72FF810B097
:1042C000B0BD000010B584B040F2343041F20001BE
:1042D0000024C2F20000C4F2000140F2F313039480
:1042E000CDE9014440F29F5280E81600C36084612A
:1042F000FEF776F9002818BFFCF7DCFA40F23430FC
:10430000C2F2000001A901940394FEF701F900280C
:1043100018BFFCF7CFFA04B010BD0000B0B540F2F2
:10432000803043F60001C2F20000C4F2010148F2FD
:10433000A0620C240025C0F201024FF480534FF418
:10434000005C4FF4806E80E80E50C0E90545C0E97E
:104350000755C0E90955FFF72FFB002818BFFCF7E8
:10436000A9FA40F28030C2F200000021FFF774F891
:10437000002818BFFCF79EFA40F28030C2F200001D
:104380000021FFF71FF8002818BFFCF793FA40F24E
:104390008030C2F20000FEF7C9FF002808BFB0BDA0
:1043A000BDE8B040FCF786BA80B540F2144044F254
:1043B0000041C2F20000C4F2000100234FF00C0CD7
:1043C0004FF4964280E80E00C0E90333C0E905C30C
:1043D000C0E90733C0E90933FFF7EEFA002818BF38
:1043E000FCF768FA40F21440C2F200000021FFF727
:1043F00033F8002818BFFCF75DFA40F21440C2F20F
:1044000000000021FEF7DEFF002818BFFCF752FA7B
:1044100040F21440C2F20000FEF788FF002808BFF7
:1044200080BDBDE88040FCF745BA0000FEE7000013
:10443000F0B581B02DED068B40F28B54C2F2000432
:104440002078052800F25585DFE810F00600DF002F
:104450005B009C001800FF0040F28A50C2F200008E
:104460000078012840F045850120207040F2982016
:10447000C2F200000021016000F03BBD40F28C550B
:1044800040F21C06C2F20005C2F2000628883189FB
:10449000490001318142C0F02C85288840F6004750
:1044A0000028C4F2020700F00F8100EE100A3089E4
:1044B000B0EE002A01EE100AB8EE411A31EE011AF0
:1044C000B8EE400A31EE021A80EE010A9FEDB61AEC
:1044D0009FEDB68A20EE010AB4EE480AF1EE10FA1A
:1044E00040F3FE80DFEDB00A01F070FDB4EE480A43
:1044F000F1EE10FA40F308819FEDAD1A30EE010A9B
:1045000002E140F28C5540F21C06C2F20005C2F2F4
:10451000000628883189884200F2EB84288840F61A
:1045200000470028C4F2020700F0D18000EE100A14
:104530003089B0EE002A01EE100AB8EE411A31EED1
:10454000011AB8EE400A31EE021A80EE010A9FED20
:10455000961A9FED968A20EE010AB4EE480AF1EE13
:1045600010FA40F3C781DFED900A01F02FFDB4EEA1
:10457000480AF1EE10FA40F3D1819FED8D1A30EE2A
:10458000010ACBE140F28C5540F21C06C2F2000554
:10459000C2F2000628883189490001318142C0F009
:1045A000A884288840F600470028C4F2020700F0DB
:1045B000918000EE100A3089B0EE002A01EE100A58
:1045C000B8EE411A31EE011AB8EE400A31EE021A85
:1045D00080EE010A9FED741A9FED748A20EE010AA5
:1045E000B4EE480AF1EE10FA40F36982DFED6E0A8C
:1045F00001F0ECFCB4EE480AF1EE10FA40F37382DD
:104600009FED6B1A30EE010A6DE240F63400C4F201
:10461000000040F2D22101604FF4FA71416040F293
:104620009820C2F200000168013101600168C829C8
:10463000C0F05F840221217040F28C51C2F200016F
:1046400000220A80026000F054BC40F28C5540F217
:104650001C06C2F20005C2F2000628883189884291
:1046600000F24784288840F60047C4F20207A0B34E
:1046700000EE100A3089B0EE002A01EE100AB8EE02
:10468000411A31EE011AB8EE400A31EE021A80EEFC
:10469000010A9FED451A9FED458A20EE010AB4EE0E
:1046A000480AF1EE10FA40F3F282DFED3F0A01F022
:1046B0008DFCB4EE480AF1EE10FA40F3FC829FED57
:1046C0003C1A30EE010AF6E29FED3A9A3CE09FED8B
:1046D000399A43E19FED379A26E29FED369A0BE334
:1046E0009FED359AB4EE490AF1EE10FA0CDA9FED1F
:1046F0002E8AF0EE480A01F069FCB4EE490AF1EEA8
:1047000010FAB8BF30EE080A9FED2C1A20EE010A0D
:10471000BDEEC00A87ED010A3868B0F1FF3FFBDC4F
:1047200097ED020A9FED261AB8EEC00A20EE010AA4
:1047300096ED031A96ED042A21EE000A9FED211A48
:1047400030EE020A20EE019A288848B300EE100AE3
:104750003089B0EE002A01EE100AB8EE411A31EEAF
:10476000011AB8EE400A31EE021A80EE010A9FEDFE
:104770000E1A9FED0E8A20EE010AB4EE480AF1EE01
:1047800010FA29DDDFED080A01F020FCB4EE480A3A
:10479000F1EE10FA34DD9FED061A30EE010A2FE03B
:1047A0009FED090A4CE000BFDB0FC940DB0F494019
:1047B000DB0FC9C000401C47DB0F49C083F9224E04
:1047C000000000300000FA4400000000000000B0CB
:1047D000000034430000FA431FED09AAB4EE4A0A70
:1047E000F1EE10FA0CDA1FED108AF0EE480A01F033
:1047F000EDFBB4EE4A0AF1EE10FAB8BF30EE080A4B
:104800001FED121A20EE010ABDEEC00A87ED010A63
:104810003868B0F1FF3FFBDC97ED020A1FED151A77
:10482000B8EEC00A96ED032A20EE010A96ED041AAE
:1048300022EE000A1FED1D2A30EE010A20EE020AC8
:104840001FED1D1A40F6C41389EE012A80EE010AFD
:104850001FED201A4FF4FA7232EE012ABCEEC22A82
:1048600012EE100A30EE010ABCEEC00AB0F5FA7F73
:1048700010EE101A98BF1046984228BF1846B1F59E
:10488000FA7F88BF0A4640F634019A4228BF1A468A
:10489000C4F2000108604A604FF090404FF480710C
:1048A0000122FCF70BFE28880130288028883189F6
:1048B00049000131814280F01C8340F2AC40C2F2D9
:1048C0000000016842688368C76800693061F7606A
:1048D000B36072603160022040F28E51207000207F
:1048E000C2F200012880087040F2C041C2F200010B
:1048F0000870FEE21FED509AB4EE490AF1EE10FA8C
:104900000CDA1FED578AF0EE480A01F05FFBB4EEB7
:10491000490AF1EE10FAB8BF30EE080A1FED591A35
:1049200020EE010ABDEEC00A87ED010A3868B0F139
:10493000FF3FFBDC97ED020A1FED5F1AB8EEC00ADD
:1049400020EE010A96ED031A96ED042A21EE000AE4
:104950001FED641A30EE020A20EE019A288848B34F
:1049600000EE100A3089B0EE002A01EE100AB8EE0F
:10497000411A31EE011AB8EE400A31EE021A80EE09
:10498000010A1FED771A1FED778A20EE010AB4EEB7
:10499000480AF1EE10FA10DD5FED7D0A01F016FB1A
:1049A000B4EE480AF1EE10FA1BDD1FED7F1A30EE6F
:1049B000010A16E01FED7C0A34E01FED81AAB4EE77
:1049C0004A0AF1EE10FA0CDA1FED898AF0EE480A75
:1049D00001F0FCFAB4EE4A0AF1EE10FAB8BF30EE7C
:1049E000080A1FED8A1A20EE010ABDEEC00A87ED03
:1049F000010A00BF3868B0F1FF3FFBDC97ED020A07
:104A00001FED8E1AB8EEC00A96ED032A20EE010AB9
:104A100096ED041A22EE000A1FED962A30EE010AE6
:104A200020EE020A1FED961A40F6C41389EE012A01
:104A300080EE010A1FED991A4FF4FA7232EE012A44
:104A4000BCEEC22A12EE100A30EE010ABCEEC00A19
:104A5000B0F5FA7F10EE101A98BF1046984228BFA2
:104A60001846B1F5FA7F88BF0A4640F63401C4F211
:104A700000019A4228BF1A4608604A60288801301F
:104A8000288028883189884240F2338240F28E5053
:104A9000C2F200000178002900F0EA8104212170AF
:104AA00040F29051C2F200010A684B688F68CC68EE
:104AB00009693161F460B76073603260F4E11FED41
:104AC000C29AB4EE490AF1EE10FA0CDA1FEDCA8A66
:104AD000F0EE480A01F07AFAB4EE490AF1EE10FA63
:104AE000B8BF30EE080A1FEDCB1A20EE010ABDEE6A
:104AF000C00A87ED010A00BF3868B0F1FF3FFBDC58
:104B000097ED020A1FEDD21AB8EEC00A20EE010A94
:104B100096ED031A96ED042A21EE000A1FEDD71A2E
:104B200030EE020A20EE019A288848B300EE100AFF
:104B30003089B0EE002A01EE100AB8EE411A31EECB
:104B4000011AB8EE400A31EE021A80EE010A9FED1A
:104B5000EB1A9FEDEB8A20EE010AB4EE480AF1EE63
:104B600010FA10DDDFEDE50A01F030FAB4EE480A84
:104B7000F1EE10FA1BDD9FEDE41A30EE010A16E0AB
:104B80009FEDE50A34E09FEDDFAAB4EE4A0AF1EEAC
:104B900010FA0CDA9FEDD98AF0EE480A01F016FA05
:104BA000B4EE4A0AF1EE10FAB8BF30EE080A9FEDF3
:104BB000D71A20EE010ABDEEC00A87ED010A00BF38
:104BC0003868B0F1FF3FFBDC97ED020A9FEDD31A86
:104BD000B8EEC00A96ED032A20EE010A96ED041AFB
:104BE00022EE000A9FEDCB2A30EE010A20EE020AE7
:104BF0009FEDCB1A40F6C41389EE012A80EE010A1C
:104C00009FEDC81A4FF4FA7232EE012ABCEEC22AA6
:104C100012EE100A30EE010ABCEEC00AB0F5FA7FBF
:104C200010EE101A98BF1046984228BF1846B1F5EA
:104C3000FA7F88BF0A4640F63401C4F200019A4266
:104C400028BF1A4608604A602888013028802888D2
:104C5000318949000131814280F04B8140F28E5010
:104C6000C2F200000178002900F0248105212170A2
:104C700040F29051C2F200010A684B688F68CC681C
:104C800009693161F460B760736032602EE19FEDB5
:104C90009D9AB4EE490AF1EE10FA0CDA9FED978A6C
:104CA000F0EE480A01F092F9B4EE490AF1EE10FA7A
:104CB000B8BF30EE080A9FED951A20EE010ABDEE4E
:104CC000C00A87ED010A00BF3868B0F1FF3FFBDC86
:104CD00097ED020A9FED8E1AB8EEC00A20EE010A87
:104CE00096ED031A96ED042A21EE000A9FED891A2B
:104CF00030EE020A20EE019A288848B300EE100A2E
:104D00003089B0EE002A01EE100AB8EE411A31EEF9
:104D1000011AB8EE400A31EE021A80EE010A9FED48
:104D2000771A9FED778A20EE010AB4EE480AF1EE79
:104D300010FA10DDDFED710A01F048F9B4EE480A0F
:104D4000F1EE10FA1BDD9FED701A30EE010A16E04D
:104D50009FED710A34E09FED6BAAB4EE4A0AF1EEC2
:104D600010FA0CDA9FED658AF0EE480A01F02EF990
:104D7000B4EE4A0AF1EE10FAB8BF30EE080A9FED21
:104D8000631A20EE010ABDEEC00A87ED010A00BFDA
:104D90003868B0F1FF3FFBDC97ED020A9FED5F1A28
:104DA000B8EEC00A96ED032A20EE010A96ED041A29
:104DB00022EE000A9FED572A30EE010A20EE020A89
:104DC0009FED571A40F6C41389EE012A80EE010ABE
:104DD0009FED541A4FF4FA7232EE012ABCEEC22A49
:104DE00012EE100A30EE010ABCEEC00AB0F5FA7FEE
:104DF00010EE101A98BF1046984228BF1846B1F519
:104E0000FA7F88BF0A4640F634019A4228BF1A4604
:104E1000C4F2000108604A604FF090404FF4807186
:104E20000122FCF74BFB2888013028802888318933
:104E300088425ED940F2AC40C2F20000016842688C
:104E40008368C768006930610320F760B3607260EF
:104E500031602070308900210130288040F28E506E
:104E6000C2F20000017040F2C040C2F200003FE018
:104E700040F2C04CC2F2000C9CF8002092B140F20B
:104E8000AC42C2F20002D2F800E057689168D368E1
:104E900012693261F360B16000217760C6F800E00A
:104EA0008CF800100321217000210170308901303D
:104EB00028801EE040F2C04CC2F2000C9CF800209A
:104EC00092B140F2AC42C2F20002D2F800E0576860
:104ED0009168D36812693261F360B1600021776034
:104EE000C6F800E08CF80010022121700021298012
:104EF0000170BDEC068B01B0F0BD00BFDB0FC940F7
:104F0000DB0F4940DB0F49C0DB0FC9C083F9224EDC
:104F1000000000300000FA4400000000000000B073
:104F2000000034430000FA43FEE700007047000031
:104F300070470000FCF7D0BB4EF68850CEF2000060
:104F4000016841F4700101607047000040F29C204C
:104F5000C2F20000FDF7ECBB80B5FFF769FA40F242
:104F6000E820C2F20000BDE88040FDF7E1BB000090
:104F700040F23430C2F20000FDF7DABB42F6FF33F4
:104F80000268C4F2010398420FDCB0F1804F1ED0DA
:104F900040F20043C4F20003984218D040F60003E8
:104FA000C4F20003984212D015E042F60043C4F266
:104FB000010398420BD045F20003C4F2010398426A
:104FC00005D043F20043C4F20103984203D14B6879
:104FD00022F070021A4343F2FF33C4F201039842F5
:104FE00014DD44F2FF33C4F20103984227DD44F29A
:104FF0000043C4F2010398422DD045F20003C4F2ED
:105000000103984227D044F6000320E040F2FF73EA
:10501000C4F20003984209DCB0F1804F1BD040F28B
:105020000043C4F20003984215D018E040F6000394
:10503000C4F2000398420ED042F6004307E043F268
:105040000043C4F20103984205D044F20003C4F2C5
:105050000103984203D1CB6822F440721A4380B511
:105060004B6922F0800E8A6843EA0E03D1F800C033
:105070000360C262A0F18042A2F596324FEAB222EA
:10508000092AC0F828C0BDE8804008D8012303FAE7
:1050900002F240F2E5231A421CBF096901630121B3
:1050A00041610169C90708BF7047016921F0010129
:1050B00001617047816A0A070CD4CA0715D18A07B3
:1050C0001ED44A0727D4CA0630D48A0639D44A06E1
:1050D00042D457E00268D0F838C0536823F4004344
:1050E00043EA0C035360CA07E9D00268D0F82CC029
:1050F000536823F4003343EA0C0353608A07E0D576
:105100000268D0F830C0536823F4803343EA0C03BC
:1051100053604A07D7D50268D0F834C0536823F4E7
:10512000802343EA0C035360CA06CED50268D0F848
:105130003CC0936823F4805343EA0C0393608A06CF
:10514000C5D50268D0F840C0936823F4005343EA01
:105150000C0393604A0615D5D0F800C0436CDCF808
:105160000420B3F5801F22F4801242EA0302CCF837
:10517000042007D1DCF80420836C22F4C0021A4317
:10518000CCF80420090658BF70470168C06C4A6813
:1051900022F400221043486070470000B0B582B08E
:1051A00004460020C4F89000FCF78EF921680546FB
:1051B000096809071AD56FF07E4C20464FF400119C
:1051C00000222B46CDF800C000F086FA70B100BF77
:1051D000206850E8000F216820F0800041E80002BC
:1051E000002AF5D103202021882230E020680068C1
:1051F000400723D56FF07E4C20464FF480010022FB
:105200002B46CDF800C000F067FAB8B1206850E82E
:10521000000F216820F4907041E80002002AF5D1C7
:10522000206850E8020F216820F0010041E80202E6
:10523000002AF5D1032020218C2208E02020C4F888
:105240008800C4F88C00002170220020E166A15083
:10525000002184F8841002B0B0BD0000806A0021F3
:10526000A0F85E10FEF7CEB9806A0368D0F88820F7
:10527000D0F88CC09B681B061BD5212A19D10022AF
:10528000A0F85620026852E8002F036822F0C002FE
:1052900043E800210029F5D1016851E8021F0268A6
:1052A00021F4000142E80213002BF5D12021C0F8BF
:1052B000881001688968490632D5BCF1220F2FD1C8
:1052C0000021A0F85E1000BF016851E8001F0268CD
:1052D00021F4907142E80013002BF5D14FF6FE7CCB
:1052E000CEF6FF7C026852E8022F036802EA0C0245
:1052F00043E802210029F5D1C16E01290AD100BF7E
:10530000016851E8001F026821F0100142E8001313
:10531000002BF5D12021C0F88C100021C166416717
:10532000D0F8901041F01001C0F89010FEF76AB963
:105330000168806A0968890630D40021A0F85E10EF
:10534000016851E8001F026821F4807142E80013EF
:10535000002BF5D1016851E8021F026821F001011C
:1053600042E80213002BF5D1016851E8021F0268E0
:1053700021F0400142E80213002BF5D12021C0F8B2
:105380008C10C16E012909D1016851E8001F026823
:1053900021F0100142E80013002BF5D10021016734
:1053A000C16E012918BFFEF7ADBCB0F85C10FDF767
:1053B000D9BF0000806A01210167C16E012918BFB1
:1053C000FEF7A2BCB0F85C104908FDF7CBBF0000A7
:1053D0000168806A0968890648BFFEF76FBD002131
:1053E000A0F85610016851E8021F026821F0800100
:1053F00042E80213002BF5D1016851E8001F026852
:1054000041F0400142E80013002BF5D17047000045
:10541000806AFEF755BD0000F0B581B0044604F186
:1054200008064ECE0068194341EA0603E1690668A2
:1054300046F6F315CCF6FF752E4033430B4303605D
:1054400043684FF2FF4523F440531A43426048F249
:105450000002A369C4F2000290421CBF266A3343D3
:105460008668C1F2FF152E4033438360C36A666AC3
:1054700023F00F033343C36244F6FF73C4F2000307
:1054800098424FF0100318DC44F20046C4F20006C4
:10549000B04227D044F60006C4F20006B0422FD036
:1054A00044F60046C4F20006B0423ED141F2880301
:1054B000C4F202031B689B092FE045F20006C4F208
:1054C0000006B04215D0904221D043F60006C4F247
:1054D0000106B04229D141F28803C4F202031B68DD
:1054E00079A61EE041F28803C4F202031B689B0800
:1054F00013E041F28803C4F202031B681B0A0CE0AC
:1055000041F28803C4F202031B681B0905E041F263
:105510008803C4F202031B689B0A46F6D416C0F641
:10552000000603F0030356F82330904242F2004095
:10553000C0F2F40013D0B1F5004F1ED1082B00F2D9
:1055400064800027DFE803F00569736171616161C0
:10555000B500FCF70BFD002840F06A809DE0082BA9
:105560004ED80027DFE803F0054C1E4C184C4C4C7D
:105570001C00FCF7FBFCB8B98FE0082B49D80027CA
:10558000DFE803F0054F7447724747479C00FCF77C
:10559000EDFC00286BD180E0FCF714FD20B97CE025
:1055A0004FF40040002878D0616A46F6BC12C0F67D
:1055B000000232F811206568B0FBF2F305EB4501FB
:1055C0008B424FF001016BD32E03B34268D8002108
:1055D0000023FAF71DFE090241EA1061000210EBF8
:1055E000550041F100012A460023FAF711FE4FF65B
:1055F0000052A0F54071C0F20F0291424BD34EE031
:10560000002001270028CFD147E00020012778B9EA
:1056100043E00020012750BB3FE0FCF7BDFC38B958
:105620003BE0FCF7B9FC10BB37E0FCF7CBFCA0B3C8
:10563000616A46F6BC12C0F6000232F811106268C8
:10564000B0FBF1F0510801EB4000B0FBF2F04FF677
:10565000EF72A0F11001914221D84FF6F071014094
:10566000C0F34200084416E0FCF7ACFCA8B1616A44
:1056700046F6BC12C0F6000232F811106268B0FBA8
:10568000F1F000EB5200B0FBF2F04FF6EF72A0F138
:105690001001914203D82168C860394600E0012119
:1056A0004FF001100022A06662670846A26701B0B1
:1056B000F0BD4FF400400028BAD1EEE74FF40040AF
:1056C0000028D4D1E9E700BF010000000400000079
:1056D00002000000080000002DE9F04381B00446FC
:1056E0000068C0690840401AB0FA80F04009824260
:1056F00057D1DDF8208015460E46994608F101077E
:1057000009E000BF2068C0693040801BB0FA80F01B
:105710004009854245D1002FF4D0FBF7D5FE014664
:10572000B8F1000F4FF003003CD0A1EB0901414557
:1057300038D8206801684907E4D5402EE2D0802E91
:10574000E0D0C169090730D4C1690905DAD54FF441
:1057500000610162206850E8000F216820F4907019
:1057600041E80002002AF5D14FF6FE70CEF6FF7038
:10577000216851E8021F2268014042E80213002B11
:10578000F6D1E06E012809D1206850E8000F2168A9
:1057900020F0100041E80002002AF5D1032020216A
:1057A0002CE0002001B0BDE8F0830821016200BFB9
:1057B000206850E8000F216820F4907041E8000252
:1057C000002AF5D14FF6FE70CEF6FF70216851E841
:1057D000021F2268014042E80213002BF6D1E06E5E
:1057E000012809D1206850E8000F216820F010003E
:1057F00041E80002002AF5D1012008212022C4F846
:105800008C200022E2666267C4F8901084F884203D
:1058100001B0BDE8F083000010B540F28034C2F260
:1058200000042068C169C90613D510210162204611
:10583000FDF760FED4F8800040F248510068C2F2E3
:1058400000014068C0F11E0081F83E00012081F88F
:105850003F0040F28030C2F20000BDE81040FDF78A
:10586000D3BE000040F21440C2F20000FDF7CCBEEF
:1058700070B52DED048B84B0044640F2AC40C2F20A
:10588000000080ED000AC0ED010A0481B0EE408AFC
:1058900090ED000A90ED011AB6EE009A30EE410A42
:1058A00020EE090A80ED030A90ED000A90ED011A3E
:1058B00040F28B5130EE010A20EE090A80ED040A15
:1058C000C2F200010A78022A37D15AA001F058F832
:1058D00040F29056C2F2000640F21C0086ED008AAB
:1058E000C2F20000406801217060348196ED000A28
:1058F00096ED011A40F28E5030EE410A20EE090A70
:1059000086ED030A96ED000A96ED011AC2F2000038
:1059100030EE010A20EE090A86ED040A01703068B3
:10592000FAF7C0FC044670680D46FAF7BBFC41EC80
:10593000100B3089029040A03BE00A78032A48D13E
:1059400030A0B0EE608A01F01BF840F21C00C2F2F9
:105950000000006840F29056C2F20006306086ED0A
:10596000018A348196ED000A96ED011A40F28E50BC
:1059700030EE410A20EE090A86ED030A96ED000A90
:1059800096ED011AC2F2000030EE010A20EE090A7B
:10599000012186ED040A01703068FAF783FC0446A1
:1059A00070680D46FAF77EFC41EC100B30890290CE
:1059B00015A022462B468DED000B00F0DDFA40F2DB
:1059C000C040C2F200000121017004B0BDEC048BA4
:1059D00070BD0A780AB10878F1E701684268836807
:1059E000C668006940F21C05C2F20005286140F259
:1059F0008E50EE60AB606A602960C2F20000002148
:105A00000170DCE7320D00007472616E732070610A
:105A100072616D733A206D61783D252E31662C20C0
:105A20006D696E3D252E31662C206E3D25640D0A74
:105A300000000000310D00007472616E732070610F
:105A400072616D3A206D61783D252E31662C206D96
:105A5000696E3D252E31662C206E3D25640D0A00B1
:105A6000FEE7000080B582B0019040F21440C2F21F
:105A7000000001A901224FF6FF73FEF747F90198D4
:105A800002B080BDA2B0FBF735FE14AC2046382131
:105A9000FAF7F6FB00254FF400701395CDE9115588
:105AA000CDE90F55FBF7CCFE01204FF480310326E2
:105AB000149015910221CDE91C602420CDE91E012E
:105AC00020461B91CDE92011FCF7BEFA18B1EFF387
:105AD000108072B6FEE70F20CDE90F060FA8042153
